{
  "_format": "hh-sol-artifact-1",
  "contractName": "Wallet",
  "sourceName": "contracts/Wallet.sol",
  "abi": [
    {
      "inputs": [],
      "stateMutability": "nonpayable",
      "type": "constructor"
    },
    {
      "anonymous": false,
      "inputs": [
        {
          "indexed": false,
          "internalType": "address",
          "name": "sender",
          "type": "address"
        },
        {
          "indexed": false,
          "internalType": "uint256",
          "name": "amount",
          "type": "uint256"
        }
      ],
      "name": "Deposit",
      "type": "event"
    },
    {
      "anonymous": false,
      "inputs": [
        {
          "indexed": true,
          "internalType": "address",
          "name": "sender",
          "type": "address"
        },
        {
          "indexed": true,
          "internalType": "address",
          "name": "to",
          "type": "address"
        },
        {
          "indexed": false,
          "internalType": "uint256",
          "name": "amount",
          "type": "uint256"
        }
      ],
      "name": "Transfer",
      "type": "event"
    },
    {
      "inputs": [],
      "name": "depositToWallet",
      "outputs": [],
      "stateMutability": "payable",
      "type": "function"
    },
    {
      "inputs": [],
      "name": "getBalance",
      "outputs": [
        {
          "internalType": "uint256",
          "name": "",
          "type": "uint256"
        }
      ],
      "stateMutability": "view",
      "type": "function"
    },
    {
      "inputs": [
        {
          "internalType": "address",
          "name": "_who",
          "type": "address"
        }
      ],
      "name": "getBalanceOf",
      "outputs": [
        {
          "internalType": "uint256",
          "name": "",
          "type": "uint256"
        }
      ],
      "stateMutability": "view",
      "type": "function"
    },
    {
      "inputs": [],
      "name": "getContractBalance",
      "outputs": [
        {
          "internalType": "uint256",
          "name": "",
          "type": "uint256"
        }
      ],
      "stateMutability": "view",
      "type": "function"
    },
    {
      "inputs": [],
      "name": "owner",
      "outputs": [
        {
          "internalType": "address",
          "name": "",
          "type": "address"
        }
      ],
      "stateMutability": "view",
      "type": "function"
    },
    {
      "inputs": [
        {
          "internalType": "uint256",
          "name": "",
          "type": "uint256"
        }
      ],
      "name": "transcations",
      "outputs": [
        {
          "internalType": "address",
          "name": "from",
          "type": "address"
        },
        {
          "internalType": "address",
          "name": "to",
          "type": "address"
        },
        {
          "internalType": "uint256",
          "name": "timestamp",
          "type": "uint256"
        }
      ],
      "stateMutability": "view",
      "type": "function"
    },
    {
      "inputs": [
        {
          "internalType": "address",
          "name": "to",
          "type": "address"
        },
        {
          "internalType": "uint256",
          "name": "amount",
          "type": "uint256"
        }
      ],
      "name": "transferDirect",
      "outputs": [],
      "stateMutability": "nonpayable",
      "type": "function"
    },
    {
      "inputs": [
        {
          "internalType": "address",
          "name": "to",
          "type": "address"
        },
        {
          "internalType": "uint256",
          "name": "amount",
          "type": "uint256"
        }
      ],
      "name": "transferToWallet",
      "outputs": [],
      "stateMutability": "nonpayable",
      "type": "function"
    },
    {
      "inputs": [
        {
          "internalType": "uint256",
          "name": "amount",
          "type": "uint256"
        }
      ],
      "name": "withDraw",
      "outputs": [],
      "stateMutability": "nonpayable",
      "type": "function"
    }
  ],
  "bytecode": "0x608060405234801561001057600080fd5b50336000806101000a81548173ffffffffffffffffffffffffffffffffffffffff021916908373ffffffffffffffffffffffffffffffffffffffff160217905550610f04806100606000396000f3fe6080604052600436106100865760003560e01c80636f9fb98a116100595780636f9fb98a1461013157806378e8691d1461015c5780638da5cb5b1461019b5780639b96eece146101c6578063f1f5bef01461020357610086565b806312065fe01461008b57806314174f33146100b657806356c23836146100df5780636716909014610108575b600080fd5b34801561009757600080fd5b506100a061020d565b6040516100ad9190610b5e565b60405180910390f35b3480156100c257600080fd5b506100dd60048036038101906100d89190610baa565b610254565b005b3480156100eb57600080fd5b5061010660048036038101906101019190610c35565b610376565b005b34801561011457600080fd5b5061012f600480360381019061012a9190610c35565b610610565b005b34801561013d57600080fd5b506101466108b9565b6040516101539190610b5e565b60405180910390f35b34801561016857600080fd5b50610183600480360381019061017e9190610baa565b610950565b60405161019293929190610c84565b60405180910390f35b3480156101a757600080fd5b506101b06109ca565b6040516101bd9190610cbb565b60405180910390f35b3480156101d257600080fd5b506101ed60048036038101906101e89190610cd6565b6109ee565b6040516101fa9190610b5e565b60405180910390f35b61020b610ac6565b005b6000600160003373ffffffffffffffffffffffffffffffffffffffff1673ffffffffffffffffffffffffffffffffffffffff16815260200190815260200160002054905090565b80600160003373ffffffffffffffffffffffffffffffffffffffff1673ffffffffffffffffffffffffffffffffffffffff1681526020019081526020016000205410156102d6576040517f08c379a00000000000000000000000000000000000000000000000000000000081526004016102cd90610d60565b60405180910390fd5b3373ffffffffffffffffffffffffffffffffffffffff166108fc829081150290604051600060405180830381858888f1935050505015801561031c573d6000803e3d6000fd5b5080600160003373ffffffffffffffffffffffffffffffffffffffff1673ffffffffffffffffffffffffffffffffffffffff168152602001908152602001600020600082825461036c9190610daf565b9250508190555050565b80600160003373ffffffffffffffffffffffffffffffffffffffff1673ffffffffffffffffffffffffffffffffffffffff1681526020019081526020016000205410156103f8576040517f08c379a00000000000000000000000000000000000000000000000000000000081526004016103ef90610d60565b60405180910390fd5b8173ffffffffffffffffffffffffffffffffffffffff166108fc829081150290604051600060405180830381858888f1935050505015801561043e573d6000803e3d6000fd5b5080600160003373ffffffffffffffffffffffffffffffffffffffff1673ffffffffffffffffffffffffffffffffffffffff168152602001908152602001600020600082825461048e9190610daf565b92505081905550600060405180606001604052803373ffffffffffffffffffffffffffffffffffffffff1681526020018473ffffffffffffffffffffffffffffffffffffffff168152602001838152509050600281908060018154018082558091505060019003906000526020600020906003020160009091909190915060008201518160000160006101000a81548173ffffffffffffffffffffffffffffffffffffffff021916908373ffffffffffffffffffffffffffffffffffffffff16021790555060208201518160010160006101000a81548173ffffffffffffffffffffffffffffffffffffffff021916908373ffffffffffffffffffffffffffffffffffffffff1602179055506040820151816002015550508273ffffffffffffffffffffffffffffffffffffffff163373ffffffffffffffffffffffffffffffffffffffff167fddf252ad1be2c89b69c2b068fc378daa952ba7f163c4a11628f55a4df523b3ef846040516106039190610b5e565b60405180910390a3505050565b80600160003373ffffffffffffffffffffffffffffffffffffffff1673ffffffffffffffffffffffffffffffffffffffff168152602001908152602001600020541015610692576040517f08c379a000000000000000000000000000000000000000000000000000000000815260040161068990610d60565b60405180910390fd5b80600160008473ffffffffffffffffffffffffffffffffffffffff1673ffffffffffffffffffffffffffffffffffffffff16815260200190815260200160002060008282546106e19190610de3565b9250508190555080600160003373ffffffffffffffffffffffffffffffffffffffff1673ffffffffffffffffffffffffffffffffffffffff16815260200190815260200160002060008282546107379190610daf565b92505081905550600060405180606001604052803373ffffffffffffffffffffffffffffffffffffffff1681526020018473ffffffffffffffffffffffffffffffffffffffff168152602001838152509050600281908060018154018082558091505060019003906000526020600020906003020160009091909190915060008201518160000160006101000a81548173ffffffffffffffffffffffffffffffffffffffff021916908373ffffffffffffffffffffffffffffffffffffffff16021790555060208201518160010160006101000a81548173ffffffffffffffffffffffffffffffffffffffff021916908373ffffffffffffffffffffffffffffffffffffffff1602179055506040820151816002015550508273ffffffffffffffffffffffffffffffffffffffff163373ffffffffffffffffffffffffffffffffffffffff167fddf252ad1be2c89b69c2b068fc378daa952ba7f163c4a11628f55a4df523b3ef846040516108ac9190610b5e565b60405180910390a3505050565b60008060009054906101000a900473ffffffffffffffffffffffffffffffffffffffff1673ffffffffffffffffffffffffffffffffffffffff163373ffffffffffffffffffffffffffffffffffffffff161461094a576040517f08c379a000000000000000000000000000000000000000000000000000000000815260040161094190610e85565b60405180910390fd5b47905090565b6002818154811061096057600080fd5b90600052602060002090600302016000915090508060000160009054906101000a900473ffffffffffffffffffffffffffffffffffffffff16908060010160009054906101000a900473ffffffffffffffffffffffffffffffffffffffff16908060020154905083565b60008054906101000a900473ffffffffffffffffffffffffffffffffffffffff1681565b60008060009054906101000a900473ffffffffffffffffffffffffffffffffffffffff1673ffffffffffffffffffffffffffffffffffffffff163373ffffffffffffffffffffffffffffffffffffffff1614610a7f576040517f08c379a0000000000000000000000000000000000000000000000000000000008152600401610a7690610e85565b60405180910390fd5b600160008373ffffffffffffffffffffffffffffffffffffffff1673ffffffffffffffffffffffffffffffffffffffff168152602001908152602001600020549050919050565b34600160003373ffffffffffffffffffffffffffffffffffffffff1673ffffffffffffffffffffffffffffffffffffffff168152602001908152602001600020819055507fe1fffcc4923d04b559f4d29a8bfc6cda04eb5b0d3c460751c2402c5c5cc9109c3334604051610b3b929190610ea5565b60405180910390a1565b6000819050919050565b610b5881610b45565b82525050565b6000602082019050610b736000830184610b4f565b92915050565b600080fd5b610b8781610b45565b8114610b9257600080fd5b50565b600081359050610ba481610b7e565b92915050565b600060208284031215610bc057610bbf610b79565b5b6000610bce84828501610b95565b91505092915050565b600073ffffffffffffffffffffffffffffffffffffffff82169050919050565b6000610c0282610bd7565b9050919050565b610c1281610bf7565b8114610c1d57600080fd5b50565b600081359050610c2f81610c09565b92915050565b60008060408385031215610c4c57610c4b610b79565b5b6000610c5a85828601610c20565b9250506020610c6b85828601610b95565b9150509250929050565b610c7e81610bf7565b82525050565b6000606082019050610c996000830186610c75565b610ca66020830185610c75565b610cb36040830184610b4f565b949350505050565b6000602082019050610cd06000830184610c75565b92915050565b600060208284031215610cec57610ceb610b79565b5b6000610cfa84828501610c20565b91505092915050565b600082825260208201905092915050565b7f496e737566666963656e742042616c616e636500000000000000000000000000600082015250565b6000610d4a601383610d03565b9150610d5582610d14565b602082019050919050565b60006020820190508181036000830152610d7981610d3d565b9050919050565b7f4e487b7100000000000000000000000000000000000000000000000000000000600052601160045260246000fd5b6000610dba82610b45565b9150610dc583610b45565b925082821015610dd857610dd7610d80565b5b828203905092915050565b6000610dee82610b45565b9150610df983610b45565b9250827fffffffffffffffffffffffffffffffffffffffffffffffffffffffffffffffff03821115610e2e57610e2d610d80565b5b828201905092915050565b7f4f6e6c7920746865206f776e65722063616e20646f2074686973000000000000600082015250565b6000610e6f601a83610d03565b9150610e7a82610e39565b602082019050919050565b60006020820190508181036000830152610e9e81610e62565b9050919050565b6000604082019050610eba6000830185610c75565b610ec76020830184610b4f565b939250505056fea2646970667358221220e38350b25c781afc176bcac1e5d10114c4d9382b4500669f0a7862d1a9b6043f64736f6c634300080c0033",
  "linkReferences": {},
  "deployedLinkReferences": {}
}